:100000000C942A000C9447000C9447000C94470071
:100010000C9447000C9447000C9447000C94470044
:100020000C9447000C9447000C9447000C94470034
:100030000C9447000C9447000C9447000C94470024
:100040000C9447000C9447000C9447000C94470014
:100050000C94470011241FBECFE5D8E0DEBFCDBF12
:1000600010E0A0E6B0E0E0E2F2E002C005900D9200
:10007000A436B107D9F720E0A4E6B0E001C01D9294
:10008000A936B207E1F70E94B4000C940E010C945B
:1000900000008FEF8ABB87B38F7087BB88B38F60F8
:1000A00088BB8FE084BB83E081BB0895FC01808125
:1000B000813019F485B3816085BB8181823019F468
:1000C00085B3826085BB8281833019F485B38460F7
:1000D00085BB8381843019F485B3886085BB08951E
:1000E000882321F082B3826082BB089592B381E0BD
:1000F0008927817082BB089586B38E3059F086B30C
:100100008D3051F086B38B3049F086B3873041F49F
:1001100084E0089581E0089582E0089583E00895E1
:1001200080E00895FC013081FB012081321314C06E
:10013000FC013181FB012181321310C0FC013281AD
:10014000FB01228132130CC0FC019381FB018381EE
:10015000981741F080E0089580E0089580E00895C8
:1001600080E0089581E00895CF93DF930E944900D5
:10017000809164008430F8F42FEF83ED90E32150F8
:1001800080409040E1F700C0000080916400C82FDB
:10019000D0E00E947C00CB59DF4F888385E690E059
:1001A0000E945600809164008BBB809164008F5F39
:1001B00080936400DDCF10926400809164008630EB
:1001C00040F560E670E085E690E00E9492008823AA
:1001D00021F080E00E94700003C081E00E94700066
:1001E0002FEF84E39CE0215080409040E1F700C075
:1001F000000012BA2FEF84E39CE021508040904031
:10020000E1F700C00000809164008F5F809364007C
:10021000D4CF80E090E0DF91CF910895F894FFCFA4
:0402200001020304D0
:00000001FF
